:020000000C945E
:1000020062000C9400000C9400000C9400000C940C
:1000120000000C9400000C9400000C9400000C945E
:1000220000000C9400000C9400000C948F000C94BF
:1000320000000C9400000C9400000C9400000C943E
:1000420000000C9400000C9400000C9400000C942E
:1000520000001027E80364000A00010000100001FC
:100062001000010025303264203A2025303264200D
:100072003A2025303264002D2D20202020202020FF
:10008200202020202020200020202020202D2D2074
:10009200202020202020202000202020202020207E
:1000A2002020202D2D0080C0110060027900110057
:1000B20071028A000D0082029B000200A002A800C9
:1000C2000000F894EE27ECBBF1E0FBBFEBBFE5BF0D
:1000D2008DE0A2E0BB27ED938A95E9F780E098E0F6
:1000E200A0E6ED930197E9F7EAEAF0E085919591B0
:1000F200009761F0A591B59105901590BF01F001AF
:1001020005900D920197E1F7FB01F0CFEFE5EDBF0E
:10011200E8E0EEBFC0E6D2E00C949B00EA93FA93CB
:10012200EFB7EA93F20131962F01E991EFBFF9910E
:10013200E9911895E0E0EABBEBBBE7BBE8BBE4BBA7
:10014200E5BBE1BBEFEFE2BBE5E0E3BFE0E0E2BF2E
:10015200ECBFE1E0E9BFA0E10E94A3017894E82DA1
:10016200F0E0309701F57894EEE1F0E0E415F50562
:100172001CF4442455247394ECE3E71511F477241A
:100182006394ECE3E61511F466249394E8E1E9152F
:1001920009F499240E949203839904C00E94B9032E
:1001A200E1E08E2E6EC0E130A0E0FA0709F5F89486
:1001B2000E9492030E94BD03A0E6B2E0B2D08399EE
:1001C20004C00E94B90388248BD0829904C00E9483
:1001D200B903E2E08E2E81990AC00E94B90393947A
:1001E200E7E1E91510F4E0E001C0E92D9E2E49C0D7
:1001F200E230A0E0FA0709F5F8940E9492030E9407
:10020200BD03A1E7B2E08DD0839904C00E94B90377
:10021200882466D0829904C00E94B903E3E08E2E3E
:1002220081990AC00E94B9036394EBE3E61510F4C6
:10023200E0E001C0E62D6E2E24C0E330A0E0FA0714
:1002420001F5F8940E9492030E94BD03A2E8B2E075
:1002520068D0839904C00E94B903882441D082994E
:1002620004C00E94B903E1E08E2E81990AC00E9467
:10027200B9037394EBE3E71510F4E0E001C0E72D56
:100282007E2E6DCFFFCFAA93E8B3EF70AE2FE88139
:10029200E07FEA2BE8BB8DE08A95F1F7C39A8DE007
:1002A2008A95F1F7C3988DE08A95F1F777C0AA9302
:1002B200A881E9DFE881E295E883A881E4DF85E8A7
:1002C2008A95F1F76BC0AA93E881F0E0E056FD4F02
:1002D200E081A981AE0FEBDFB980A8802296089554
:1002E200A2E00E94C203ACE0E2DFA1E00E94C203EE
:1002F200E0E0AE2EBE2E0895AA93A881AA3011F096
:10030200BD1448F0E0E0EA93A394AA2DDCDFA881B3
:10031200AA3009F443C0B394C19AA881C8DFC19836
:100322003DC0BA93AA931A93A981BA81ED91A98388
:10033200BA831E2FE03019F0A12FDEDFF5CF18812E
:1003420023960895AA93E7B3E06FE7BBBB9AB99AE5
:10035200BA9AC398C198C298D880E881E058E093CD
:10036200A202E881E054E093A302A4E1B0E00E947B
:10037200FC030E94C8030E94C8030E94C803A0E2B3
:1003820082DF88EC90E00197F1F7A8E290DFA4E029
:100392008EDFA5E88CDFA6E08ADFA2DF2196089532
:1003A200BA93AA931A930A93AA81BB8112960E94C6
:1003B2000E04309759F1AA81BB8114960E940E0453
:1003C2008F01309761F00230E0E01E0798F0F801EB
:1003D20031978F01AA81BB811496ED93FC93AA8178
:1003E200BB811296ED91FD913196FE93EE9331977A
:1003F200AC81A083AA81BB810E940E04FF232AF054
:10040200ED91FD913196FE93EE9306C0AA81BB81D8
:10041200EFEFFFEFED93FC93198108812596089584
:10042200BA93AA9326970E941B0410E0AC85BD855F
:10043200E0E0F0E0ED93FC93EA89FB893196EA8BE8
:10044200FB8B3197E4912E2FE03009F415C1E12F97
:10045200E03039F4253211F411E002C00E94D003D9
:100462000AC1E130A9F4253219F40E94D00302C175
:1004720012E040E000E02D3211F401E0FCC02B322A
:1004820011F44BE2F8C0203211F440E2F4C002C091
:10049200E23039F450E013E0203311F40068EBC08D
:1004A20003C0E33009F0E7C0203310F02A3308F02C
:1004B20007C0AAE05A9F502DE22FE0535E0FDBC027
:1004C200E22FE33649F40E94D703E889F989A4812F
:1004D200AA930E94DD03CEC0E33741F40E94D70302
:1004E2000E94E3030E9479031E2F0AC0E03761F4E1
:1004F2000E94D7030E94E3030E9485031E2F086017
:1005020002600F7730E034C0E43611F0E93611F4BE
:10051200046002C0E53731F4E4E5F0E0EE83FF83E6
:1005220015E00CC0E83511F4086003C0E83709F0A3
:10053200A1C0EEE5F0E0EE83FF8314E002FF14C0F9
:100542000E94D7030E94ED03AB85AA233AF4EA8501
:10055200FB850E940A04EA87FB874DE2403011F0D6
:100562001F5F01C00B7F04C00E94D7030E94ED03EE
:1005720000FD11C0151778F407FF08C002FF04C080
:100582000B7F242F115001C020E301C020E20E9402
:10059200D0035150EFCF312F01FF17C03030A1F0FF
:1005A20003FF06C0EE81FF812591EE83FF8305C024
:1005B200AE81BF812D91AE83BF830E94D0035030A4
:1005C20009F051503150EACF4BC020E3EE81FF8158
:1005D2000E941204E887F987EE81FF813296EE834A
:1005E200FF83E885F985AA85BB85AE17BF0750F062
:1005F2002F5FA885B985EA85FB85EA1BFB0BEA8795
:10060200FB87EFCF2A3328F003FF02C0295F01C026
:10061200295D04FD1AC0213320F4A885B9851197FC
:1006220009F409C0531710F000FF01C013C020E203
:1006320007FF0BC020E3006102FF07C00B7F4A9354
:100642000E94DD03503009F051500E94D003503017
:1006520009F051503150A885B985129708F0B5CFED
:1006620000FF08C0503031F05150E0E2EA930E949E
:10067200DD03F8CF10E0E0CEAC85BD850E940E040C
:100682000E94220464960895FF92F82E26970E94F3
:100692001D040E94F503309719F4EFEFFFEF23C01A
:1006A200DE0116960E9406048D010E94F503EE8378
:1006B200FF83E0E0E887E987DE011A960E940604DC
:1006C2000E940E04FA93EA931A930A93E1EDF1E081
:1006D200FA93EA93DE011A96A3DE9F01AE81BF81EF
:1006E200E0E0EC93F9010E9424042A96FF90089519
:1006F200BA93AA93A991B991EE27FF276D91662328
:1007020011F03196FBCF0895BA93AA93AA27BB277B
:10071200E991F9910590002011F01196FBCFFD01AE
:100722000895E0E0EA93A0E00E946401EFE8F2E0BD
:10073200FA93EA93E6E6F0E0FA93EA93E92DFF27CB
:10074200662777270E941604E62DFF27662777275C
:100752000E941604E72DFF27662777270E941604BA
:100762008CE00E9445036096AFE8B2E00C949201DF
:10077200A8ECB0E00C94FC03E0E0EA93A1E00C9456
:1007820064010E945801A3E0B0E00C94FC03A0E3D2
:100792000E94440188EC90E00197F1F708952A93B2
:1007A200AD85BE85EF85F88909950895E889F989AF
:1007B2003497E88BF98B0895AD85BE85EF85F8896E
:1007C20009950895A889B98914960E940E04EE83AA
:1007D200FF83AE81BF810895A889B98914960E94CA
:1007E2000E04EA87FB870895DE011C960E94060428
:1007F2000E940E040895109639F080ED97E001975B
:10080200F1F7A8951197C9F708950024AF0DB01D0F
:100812000895F195E195F0400895ED91FC911197BD
:1008220008950590F491E02D08957A936A93FA93CE
:10083200EA9308955A934A933A932A931A930A93FE
:1008420008955D814C813B812A8119810881089537
:00000001FF
